:020000040000fa
:080000000002040000000000f2
:020000040000fa
:10040000afd12100007f240000018800000000001f
:100410000c0007008071210001002000110007007e
:10042000000020000000e000020032000000020096
:1004300000000000fe130200000000000040da008f
:100440000000fe004440a900400620000000e0003b
:100450000300320000002000a00188004440a800f2
:100460000000060091018800800078000000eb0089
:1004700015003700e280400032a0b4009101ba00bc
:10048000e280400032a0b4009102ba00e280400055
:1004900032a0b4000002eb00472bde00f507b200eb
:1004a000602ce10004003a000059eb008301e900f0
:1004b000fdff3e00040037006128e100010032002a
:1004c0000082eb00040007001101ba000200e00006
:1004d000e8ff3a00000006003159ba008301e90044
:1004e0000c0032002159ba008301e90008003200f3
:1004f0000400e00003003a00e280400032a0b400b3
:10050000f5ff370011d9ba008301e900faff3a007c
:100510008100e800e180400032a0b4000000060045
:1005200062130400000000008a13040000000000b1
:10053000ee070400000000008001eb00020037001d
:1005400061f079008301e800828f5100fcff3a00de
:100550000000060000037800800178000002eb0034
:10056000010037008059780084025100820f520048
:100570000900320064c078000402e8000004e000d2
:10058000f8ff3a00830078008058eb0005804100b6
:10059000808f5000fcff3a00060078000000060043
:1005a0008001eb0002003700817178008301e800d0
:1005b000828f5100fcff3a000000060080007800a6
:1005c000010037000000e8001004e000fdff3a00e1
:0805d0000100500000000600cc
:020000040000fa
:0200000401f009
:04000c00f8ff0000f9
:020000040000fa
:0200000401f009
:040010007fff00006e
:020000040000fa
:0200000401f009
:040014007fff00006a
:020000040000fa
:10000800e0170000e0170000e0170000e01700000c
:10001800e0170000e0170000e0170000e0170000fc
:10002800e0170000e0170000e0170000fc140000d3
:10003800e0170000e0170000e0170000e0170000dc
:10004800e0170000e0170000e0170000e0170000cc
:10005800e017000078160000e0170000e017000025
:10006800e0170000e0170000e0170000e0170000ac
:10007800e0170000e0170000e0170000e01700009c
:10008800e0170000e0170000e0170000e01700008c
:10009800e0170000e0170000e0170000e01700007c
:1000a800e0170000e0170000e0170000e01700006c
:1000b800e0170000e0170000e0170000e01700005c
:1000c800e0170000e0170000e0170000e01700004c
:1000d800e0170000e0170000e0170000e01700003c
:1000e800e0170000e0170000e0170000e01700002c
:1000f800e0170000e0170000e0170000e01700001c
:10010800e0170000e0170000e0170000e01700000b
:10011800e0170000e0170000e0170000e0170000fb
:10012800e0170000e0170000e0170000e0170000eb
:10013800e0170000e0170000e0170000e0170000db
:10014800e0170000e0170000e0170000e0170000cb
:10015800e0170000e0170000e0170000e0170000bb
:10016800e0170000e0170000e0170000e0170000ab
:10017800e0170000e0170000e0170000e01700009b
:10018800e0170000e0170000e0170000e01700008b
:10019800e0170000e0170000e0170000e01700007b
:1001a800e0170000e0170000e0170000e01700006b
:1001b800e0170000e0170000e0170000e01700005b
:1001c800e0170000e0170000e0170000e01700004b
:1001d800e0170000e0170000e0170000e01700003b
:1001e800e0170000e0170000e0170000e01700002b
:0801f800e0170000e017000011
:020000040000fa
:10020800e0170000e0170000e0170000e01700000a
:10021800e0170000e0170000e0170000e0170000fa
:10022800e0170000e0170000e0170000fc140000d1
:10023800e0170000e0170000e0170000e0170000da
:10024800e0170000e0170000e0170000e0170000ca
:10025800e017000078160000e0170000e017000023
:10026800e0170000e0170000e0170000e0170000aa
:10027800e0170000e0170000e0170000e01700009a
:10028800e0170000e0170000e0170000e01700008a
:10029800e0170000e0170000e0170000e01700007a
:1002a800e0170000e0170000e0170000e01700006a
:1002b800e0170000e0170000e0170000e01700005a
:1002c800e0170000e0170000e0170000e01700004a
:1002d800e0170000e0170000e0170000e01700003a
:1002e800e0170000e0170000e0170000e01700002a
:1002f800e0170000e0170000e0170000e01700001a
:10030800e0170000e0170000e0170000e017000009
:10031800e0170000e0170000e0170000e0170000f9
:10032800e0170000e0170000e0170000e0170000e9
:10033800e0170000e0170000e0170000e0170000d9
:10034800e0170000e0170000e0170000e0170000c9
:10035800e0170000e0170000e0170000e0170000b9
:10036800e0170000e0170000e0170000e0170000a9
:10037800e0170000e0170000e0170000e017000099
:10038800e0170000e0170000e0170000e017000089
:10039800e0170000e0170000e0170000e017000079
:1003a800e0170000e0170000e0170000e017000069
:1003b800e0170000e0170000e0170000e017000059
:1003c800e0170000e0170000e0170000e017000049
:1003d800e0170000e0170000e0170000e017000039
:1003e800e0170000e0170000e0170000e017000029
:0803f800e0170000e01700000f
:020000040000fa
:1005d80011110000222200003333000044440000bf
:1005e800555500006666000077770000888800008f
:1005f80099990000aaaa0000bbbb0000cccc00005f
:10060800dddd0000eeee0000cecd0000acab00005a
:1006180002020000030300000404000005050000b6
:100628000606000007070000080800000a09000085
:100638001010000010110000121200004e550000aa
:10064800004400004100000061700000726f00006b
:1006580061700000650000006465000070610000c2
:1006680072740000650000004f620000737400009f
:10067800616300006f6c00003a00000054730000d2
:1006880031000000547300003200000049440000ab
:080698004c45000000000000c9
:020000040000fa
:1006a0000000fa00e43cec000080fa0000000600c4
:1006b0000000fa00889fbe008a1f780000057800bd
:1006c00081047800e38f50000100360039002000db
:1006d000bd08070080e780008a0f500002003a0042
:1006e0000005eb00020037000a00e00002003a00bb
:1006f00088e78000010037000a047800b8089000fd
:10070000818f540025003200030036000a00e0000b
:1007100003003a00040037000a00e00002003a003b
:100720001a002000010037000005eb00390c98008a
:1007300064801400600498006a09b900e0c72100d1
:1007400002004000d8009000808f50000e003a0058
:100750008884e80009007800f1080700b8089000d4
:1007600040e78000808f50000100360041e788009c
:10077000380990006a11b900e0c72100020040006a
:1007800089007800c0080700e10f550003003a0017
:10079000b215020000000000000000008f080700f2
:1007a0004f0578004f04be000080fa0000000600ec
:1007b0000000fa00889fbe008a1f7800800478003d
:1007c0008108070080e78000890f500002003a008e
:1007d0008004eb00020037000900e00002003a004c
:1007e00088e7800001003700090478000885e800e8
:1007f0000a007800ca080700280890000000e000fe
:10080000020032006c004400c50807008a0078002e
:1008100020c521009c080700700807000900e000bf
:1008200003003a00b21502000000000000000000c2
:100830004f0578004f04be000080fa00000006005b
:100840000000fa0000017800d000900020c52100cf
:10085000808f500007003a00a2089000c0c5210018
:10086000808f500003003200100020000100e000e3
:10087000010032000000eb000080fa0000000600da
:100880000000fa00889fbe00000478000000e0002d
:100890001f00320080e78000800f54001c003200ef
:1008a0004908070008007800e5ff0700e10f500045
:1008b00016003a008884e8000900780098080700cc
:1008c000b808900040e78000808f5000010036009b
:1008d00041e78800380990006a11b900e0c721009b
:1008e00002004000890078006708070080e7800068
:1008f000b808900030089000808f50000300390045
:10090000b2150200000000000000000033080700dc
:100910004f04be000080fa00000006000000fa004c
:10092000889fbe008a1f780000047800c4ff07007b
:100930000005eb00e10f50001d003a0021e78000a8
:100940000100e00016003a0080e780000105780011
:10095000b808900030089000808f500001003900e6
:100960001a0020008884e800090078006c0807005d
:10097000b808900040e78000808f500001003600ea
:1009800041e78800380990006a11b900e0c72100ea
:1009900002004000890078003b080700040037008f
:1009a000ec004400c0c52100370807000005eb003b
:1009b0000a0078004f0578004f04be000080fa005e
:1009c000000006000000fa0042a0a800e63cef008c
:1009d000fa0707000080fa00000006000000fa0095
:1009e000881f7800e41ce2002b003a00ec3cec008d
:1009f000ec1ce20005003a0040e3800031e3800097
:100a000041e3880030e38800de3cec0040e38000f6
:100a10001000e00022003a002a0037009800900001
:100a200060e78000808f500026003e000880e800cc
:100a30003b080700280890000000e0000200320098
:100a40006c00440036080700b808900040e78000ba
:100a5000808f50000100360041e788008880e80060
:100a6000380990006a11b900e0c721000200400077
:100a70000508070040e380001000e000110032008c
:100a800040e3800030009000300490000800e00057
:100a9000e2ff3a000b003700e23cec0009003700af
:100aa00040e3800030009000300490000800e00037
:100ab000040032009800900060e78000808f5000b2
:100ac000daff36004f0478000080fa0000000600cc
:100ad0000000fa00889fbe00bb070700e43ced0061
:100ae00020e780000000e00033003a00ee1ce20046
:100af0003100320080047800150037006c0044009b
:100b0000070807000880e80005080700b8089000fb
:100b100040e78000808f50000100360041e78800e8
:100b20008880e800380990006a11b900e0c7210008
:100b300002004000d4070700b808900080e780005a
:100b400030089000808f500001003900190020000b
:100b50005c1ce2000500320010e3800030009000d1
:100b6000000478000000e000e4ff3a00e21ce2002c
:100b700013003a000500370098ff0700e23ced0043
:100b8000e21ce20006003200fbff3700e18f540058
:100b90000300320000e78000e10f500006003a0039
:100ba000e03cef00b2150200000000000000000071
:100bb00018002000050037000004eb000300370098
:100bc000e21ce200f6ff3200ebff3700830707006c
:100bd000080078004f04be000080fa000000060004
:100be0000000fa00889fbe00800478000000e0004a
:100bf00016003200aafe070068e78000088444005f
:100c0000f09cec00c607070080e780001800980001
:100c100060e78000800f54000500310081e780000c
:100c200030e380008180e800a5070700040037005a
:100c300081e7800040e380008180e800a007070092
:100c4000a3ff07000000e00003003a00b215020015
:100c500000000000000000004f04be000080fa0009
:100c6000000006000000fa00889fbe0080047800a3
:100c7000010478008afe070099007800088440008b
:100c800060e78000808f500003003600888f50009e
:100c90000600360002003700888f500005003e0035
:100ca00060e78000800f540002003e000000eb006f
:100cb0000100370010002000880c78000000e000e0
:100cc00010003200f09cec009507070080e78000e0
:100cd0001800980060e78000800f54000500310084
:100ce00081e7800030e380008180e800740707001e
:100cf0000400370081e7800040e380008180e80045
:100d00006f07070072ff07000000e00003003a00d1
:100d1000b215020000000000000000004f04be00f9
:100d20000080fa00000006000000fa00881f78002a
:100d30002507070068e780002807070008007800fb
:100d40004f0478000080fa00000006000000fa005e
:100d500070e780000080fa00000006000000fa0042
:100d6000e41ce200150032001000200000e78800bb
:100d700019003700e83ced001000370040e7800024
:100d80006a00b900e2c72100800041001100900014
:100d9000100190009200980064804000800f510084
:100da00002003a0012019000920098001100900099
:100db0003000900080e788000700370040e780009f
:100dc0006a00b900e2c72100620078000000e0007c
:100dd000e8ff3200e9ff37000080fa00000006005b
:100de0000000fa00881f78000104780081e7800085
:100df000ec80400032070700f09cec004807070039
:100e0000e10f440005003a0081e780008180e8009e
:100e100020c521001c0707001000370060e7800094
:100e20000000440081e780009000980061e78000a6
:100e3000810f50000500310081e7800030e3800021
:100e40008180e8001e0707000400370081e780006a
:100e500040e380008180e800190707004f04780014
:100e60000080fa00000006000000fa00881f7800e9
:100e700080007800100078000000e00002003a00d6
:100e80000004780002003700310090003004900028
:100e90006c00440022070700e41ce2000e003a0048
:100ea0000880e8001e070700b808900040e78000af
:100eb000808f50000100360041e788008880e800fc
:100ec000380990006a11b900e0c721000200400013
:100ed000ed06070003003700ec004400c0c5210008
:100ee000e90607003808900081e78000b10890000b
:100ef0000001eb00810f50000100390012002000ba
:100f0000020078004f0478000080fa00000006001c
:100f10000000fa00f1e680000108780061e7800037
:100f2000110098000080fa00000006000000fa009e
:100f3000889fbe008a1f78000004780001057800b1
:100f4000a10607001a0178008004eb00e10f4100c0
:100f500014003200f0e68000980f10000400320008
:100f600061e7800018009000810f50000c003600ef
:100f70009800900001007800ec1cb500800f510033
:100f80000700360001007800ec1cb500000d510090
:100f900008007800deff07008004eb000100370046
:100fa000190020008d060700090078004f05780021
:100fb0004f04be000080fa00000006000000fa00a6
:100fc0001000200000e788000080fa000000060002
:100fd0000000fa000080fa00000006000000fa009d
:100fe000f0e38000e10f5000fdff3600b215020073
:100ff0000000000000000000f9ff37000000fa00c8
:10100000889fbe008a1f7800800478000204780060
:101010007a004000420020004efd07000040eb0037
:10102000d05c9800e30f5400030036003800200025
:101030001a0020000100370064051400b80c980065
:101040000980e8008b0607006c84440008007800e3
:1010500088060700c90498000a0c7800990c9800cb
:101060004f0578004f04be000080fa000000060023
:101070000000fa00889fbe00e8c7210069ca21006d
:1010800008007800720607006a044400888f540044
:10109000fbff3a0040c721006d060700a0c62100f3
:1010a0006b060700c0c521006906070020c52100a6
:1010b0006706070040c7210040e38800a0c6210062
:1010c00030e388004f04be000080fa0000000600f4
:1010d0000000fa00889fbe008a1f78000005780093
:1010e00001047800000220007c07070080047800db
:1010f0000000e000100032000800e00003003a00a9
:101100000a0045007507070000047800c80c980025
:101110000800e00004003a00090078008807070092
:1011200088047800040037000a014500510a2000b5
:10113000080078001afd0700090078004f057800c4
:101140004f04be000080fa00000006000600fa000e
:10115000889fbe008a9fbe008c9fbe00000f780053
:1011600001067800020578001307980084067800cd
:10117000250798008600780087057800020078002f
:10118000d3ff0700800478000080eb000900e00036
:1011900041003200490c90000a0045000000440064
:1011a0000080e900f00c98000a0278008b017800ba
:1011b0000d0178008c007800090078008fff07008f
:1011c0001e0190009e00780008007800b505070019
:1011d000800c7800fc050700ee3cec0070e7800016
:1011e000e10f500003003a0089e78800a0ff0700e4
:1011f00007003700e61ce20005003a0080e78000a7
:1012000030089000808f56000100390089e788007f
:10121000b908900050e78000808f50000100360030
:1012200051e78800dc3cec00b908900040e7800002
:10123000808f50000100360041e788008980e80077
:10124000390990006a11b900e0c72100020040008e
:101250000d060700e10507002e0090000000e000e9
:101260000100320009087800e61ce20009003200a3
:1012700080e78000300890008d0f5000050031009d
:10128000b215020000000000000000001000200065
:1012900001003700100020004f06be004f05be00c1
:1012a0004f04be000080fa00000006000000fa00b3
:1012b0008003eb000003eb00860278000602780052
:1012c0008601780092062000a1342800e07e2000ec
:1012d0009eff0700e10f500004003a0042a0a80062
:1012e00030e78800ec3cef00840507000080fa003e
:1012f000000006000000fa00889fbe008a9fbe0022
:1013000080047800010578000000e000240032002d
:1013100060022000f1060700000478000000e000f1
:101320001f0032000ac8b900800578000000e800fc
:10133000ea06070000017800000c78000000e000d9
:10134000130032000b004000100498000000eb0076
:10135000600c9800220498000900e90000d0b90050
:101360000000410030049800790c98000a1498009d
:101370000080eb00101498002014980068004400ce
:10138000b305070072004400b105070005003700ef
:1013900008007800ea0607000004eb0001003700af
:1013a0000004eb00080078004f05be004f04be00ab
:1013b0000080fa00000006000000fa00889fbe00ce
:1013c0000004780080050700e80890008004eb0026
:1013d00078089000808f500001003a00190020002a
:1013e0007e050700090078004f04be000080fa0067
:1013f000000006000000fa00881f78000004780052
:1014000071050700680c900074050700080078005b
:101410004f0478000080fa00000006000000fa0087
:10142000600890000080fa00000006000000fa004a
:10143000881f78000004780010007800c0060700bc
:1014400008007800be0607004f0478000080fa000c
:10145000000006000000fa00881f780000047800f1
:1014600002007800081190000200e000190032002c
:101470000000e0000c003a00280090002efc07005d
:10148000280090008810900001004000200498007f
:1014900098009000810f50000e003900180078006d
:1014a000200498000b0037003800900022fc070051
:1014b000380090008810900001005000300498001f
:1014c000980f5000030031001800900001005000f8
:1014d00030049800680890000000e800600c980054
:1014e0004f0478000080fa00000006000000fa00b7
:1014f000889fbe0000047800010278008204780012
:1015000003017800e0089000700890008001eb0073
:10151000808f5000160031008400780008007800a9
:10152000ccff070028109000e10f40000b003a00ac
:10153000180890000000e0000c0032007200440027
:1015400049fe07000000e000080032001000200003
:10155000800c780080017800050037000000e8006a
:101560002014980013002000010037001300200011
:10157000030078004f04be000080fa00000006005f
:101580000000fa0000017800810178001000e000fe
:101590000e003200300090008210900001004000e8
:1015a0003001980092009000810f50000200390035
:1015b0001200780030019800660041009000780029
:1015c0000211900003007800dbfb07000080fa00a6
:1015d000000006000000fa00889fbe0000047800aa
:1015e00082047800600890000000e00017003200dc
:1015f00008007800e2ff0700680890000000e9009a
:10160000600c980018109000e10f40000a003a00aa
:10161000480090000000e0000b0032006800440029
:1016200011fe07000000e00007003200100020005b
:10163000800c7800050037000000e80010149800c6
:101640001000200001003700100020004f04be00f1
:101650000080fa00000006000000fa00881f7800f1
:1016600000047800d8040700281090000000e00073
:1016700029003c000d003700180890000000e00031
:101680000a00320072004400f7fd07000000e0008d
:101690000100320049fe0700281090000000e90018
:1016a000201498004240a900f3ff3c000080eb00aa
:1016b00020149800c9040700c30407001810900004
:1016c0000000e00018003c000d00370048009000ca
:1016d0000000e0000a00320068004400e2fd07005c
:1016e0000000e0000100320034fe070018109000f6
:1016f0000000e900101498004240a900f3ff3c00ec
:101700000080eb0010149800b40407004f04780028
:101710000080fa0000000600180890000000e000b9
:10172000e2ff3200d7ff3700480090000000e000e1
:10173000f3ff3200e8ff37000600fa00889fbe0082
:101740008a9fbe008c1f7800800478008105780095
:1017500022079800030678000005eb009a040700b2
:10176000690890000000e0001f003200390490007a
:101770008b0078000900780081ff07000c00e00072
:101780000b003a00690890000000e900e00c9800a6
:10179000490090000000e000100032006880440022
:1017a000b1fd0700e10f50000c003a0008003700bf
:1017b000b8049800190890000000e000070032000b
:1017c00072804400a8fd07000000e0000300320022
:1017d000b215020000000000000000007f040700b6
:1017e00010002000370037002e0490000800e000b1
:1017f00003003a0079040700080078003100370040
:101800000a00e00003003a000e007800c0fd070067
:101810001a00200071040700a1fb07006a040700fa
:1018200019109000e10f400002003a000000eb00a8
:101830009014980029109000e10f400002003a0037
:101840000000eb00a014980064040700e4004700c7
:101850000e007800b5fd07000000e00015003a001a
:1018600059040700690c90005c0407000800e000c0
:101870000c003a00ae0090007280440058fd070052
:101880000900780074ff070091fc07000000e000e9
:10189000b2ff3a00b2150200000000000000000094
:1018a000aeff3700090078006bff070088fc0700d7
:1018b000aaff37000900780067ff070084fc0700d3
:1018c0000000eb004f0678004f05be004f04be003d
:1018d0000080fa00000006000600fa00889fbe00a3
:1018e0008a9fbe008c1f7800800478000106780073
:1018f00022079800830578000005eb0032040700fa
:10190000e908900079089000808f500011003100a4
:101910000b0178008c00780009007800cdfe0700ec
:10192000190890000000e0000700320072804400b7
:101930004dfd0700e10f500003003a00b215020010
:101940000000000000000000240407001000200038
:10195000360037002e0490000800e00003003a0033
:101960001e04070008007800300037000a00e0007d
:1019700003003a000e00780065fd07001a00200001
:101980001604070046fb07000f040700191090001b
:10199000e10f400002003a000000eb0090149800b4
:1019a00029109000e10f400002003a000000eb0017
:1019b000a014980009040700e40047000e00780016
:1019c0005afd07000000e00014003a00090078000a
:1019d00079fe07000000e0000c003200ae0090002d
:1019e00068804400fefc0700090078001aff070029
:1019f00037fc07000000e000c0ff3a00b21502000b
:101a00000000000000000000bcff37000900780063
:101a100011ff07002efc0700b8ff3700090078000f
:101a20000dff07002afc07000000eb004f067800be
:101a30004f05be004f04be000080fa000000060003
:101a40000000fa00e00890000100ea0001007000c8
:101a50004f00de00610010000080fa000000060068
:101a60000000fa00e00890000001eb007008900010
:101a7000808f500001003a00120020000200780020
:101a80000080fa00000006000000fa00889fbe00f7
:101a90008a1f78000004780001057800820478002d
:101aa00042a0a80044fe07000000e0000b00320046
:101ab0000900e00006003200e80044000900780058
:101ac000e901070042a0a900c0ff2f001a0037005b
:101ad00042a0a9000000eb001700370042a0a900b7
:101ae0000000000042a0a800e808900078089000dc
:101af0000001eb00808f50000d0031000001eb0071
:101b00008a0078000800780052fe0700180890004c
:101b10000000e0000500320072004400cf02070020
:101b2000b2ff2f000000e00001003a001200200088
:101b300042a0a900020078004f0578004f04be00c3
:101b40000080fa00000006000000fa00881f7800fc
:101b5000000478008101780042a0a800600890008d
:101b60000000e0000b003a000200e0000600320036
:101b7000f200440002007800bb01070042a0a90067
:101b8000c0ff2f002700370042a0a9000000eb0093
:101b90002400370042a0a9000000000042a0a800d5
:101ba000680890000000e00002003a008000780021
:101bb0001a003700380090008810900001004000a3
:101bc0003004980098009000810f50000200390006
:101bd0001800780030049800680890000000e900c0
:101be000600c980066004400900078000811900096
:101bf0000300780050fa0700480090000000e00061
:101c0000050032006800440094020700b1ff2f0075
:101c10000000e00001003a001100200042a0a900ed
:101c2000010078004f0478000080fa0000000600f0
:101c30000000fa00889fbe0000047800810178004f
:101c400082047800e008900070089000808f5000b7
:101c50000f0031000001eb008300780008007800dd
:101c6000fcfd07000900e00009003a001808900098
:101c70000000e00008003200720044007702070014
:101c8000110020000000e00004003a0002003700cc
:101c900089007800010037008000eb000100780027
:101ca0004f04be000080fa00000006000000fa00a9
:101cb000889fbe00000478008101780082047800cb
:101cc000600890000000e0001e0032003800900024
:101cd00088109000010040003004980098009000a7
:101ce000810f50000200390018007800300498007d
:101cf000680890000000e900600c9800660044004d
:101d00009000780008119000030078000afa07009c
:101d10001900e0000a003a00480090000000e000ce
:101d200007003200680044004c0207000000e00099
:101d30000300320010002000800c78000100370002
:101d4000100020004f04be000080fa0000000600d2
:101d50000000fa000000e000270034008000eb00e3
:101d60000000000000000000000000000000000073
:101d70000000000000000000000000000000000063
:101d80000000000000000000000000000000000053
:101d90000000000000000000000000000000000043
:101da0000000000000000000000000000000000033
:101db0000000000000000000000000000000000023
:101dc0000000000000000000000000000000000013
:101dd0000000000000000000000000000000000003
:101de0000000000000000000000000008100e8008a
:101df000810f5000daff3a000080fa000000060070
:101e00000000fa00889fbe00800478000000e00017
:101e1000060034000004eb00803e2000ccff0700e9
:101e20000804e800888f5400fbff3a004f04be000e
:101e30000080fa00000006000000fa004c00dd00ff
:101e4000ca22b7000080fa00000006000000fa0075
:101e50004c00dd00f1ff200001007000ca22b60036
:101e60000080fa00000006000000fa000000eb000d
:101e7000f1ff0700cb22a80080022000b4ff07007a
:101e8000cb22a9000080eb00f0ff0700100020002b
:101e9000e9ff0700cb22a80020002000d8ff0700a0
:101ea000cb22a900e0ff2f00e8ff07000080fa0026
:101eb000000006000000fa00889fbe008004fb00be
:101ec00044ccde0008007800dbff0700cb62a800ee
:101ed000100020009eff0700cb22a80080022000f7
:101ee0009bff0700cb22a900080078000080ea00d1
:101ef0008180ea00d5ff07006f8464000800780045
:101f0000cdff07001000200091ff0700cb22a800a2
:101f1000800220008eff0700cb22a900cb62a9001f
:101f2000080078000080ea008180ea00c7ff07000f
:101f30008002200086ff07004f04be000080fa00e8
:101f4000000006000000fa00889fbe00c1cfb30069
:101f500009fc2f00e20f50001100320003003c008a
:101f6000e10f500009003a000b00370091cfb30099
:101f700049f92f00e30f500009003200d1cfb30020
:101f800049fd2f00e40f5000050032008040eb00b7
:101f90008004eb000200370081cfb30009f82f0066
:101fa0000104fb0008007800a3ff0700cb22a80073
:101fb0004001200066ff0700cb22a900080078003e
:101fc0000080ea008180ea00a0ff07006f846400bf
:101fd0000800780098ff0700cb22a80040012000ed
:101fe0005bff0700cb22a900080078000080ea0010
:101ff0008180ea0095ff07004f04be000080fa00d0
:10200000000006000000fa00800220007cff0700ac
:102010002000200088ff0700cb22a80080022000bb
:102020004bff0700cb22a900d0ff2f0087ff07003e
:102030002000200080ff0700cb22a80080022000a3
:1020400043ff0700cb22a900d0ff2f007fff07002e
:102050008000200078ff0700cb22a800800220002b
:102060003bff0700cb22a90070ff2f0077ff07007e
:102070000000eb0070ff0700cb22a80080022000c8
:1020800033ff0700cb22a9000080eb006fff0700a1
:10209000e000200068ff0700cb22a800800220009b
:1020a0002bff0700cb22a90010ff2f0067ff0700be
:1020b0006dff07000000eb005fff0700cb22a800c8
:1020c0008002200022ff0700cb22a9000080eb0045
:1020d0005eff07006000200057ff0700cb22a8002a
:1020e000800220001aff0700cb22a90090ff2f00da
:1020f00056ff07002000200041ff07000080fa0083
:10210000000006000000fa00889fbe008a9fbe0003
:1021100080057800000578008004eb00030037009c
:1021200068c07d0063ff07008904e80009047800a7
:102130000a00780021f90700890f5000f8ff3e00df
:102140004f05be004f04be000080fa0000000600ec
:102150000000fa00889fbe0002ccb300e20f5000de
:102160000d00320003003c00e10f500007003a0070
:102170000800370042c9b300e30f500006003200e8
:1021800042cdb300e40f5000030032000041eb00e9
:102190000100370002c8b300014441000844e900cf
:1021a0000804fb00c4c4de000900780022ff070019
:1021b000cb22a80040002000e5fe0700cb22a900aa
:1021c000090078000080ea008180ea001fff070014
:1021d0006f0464000800780017ff0700cb22a800f6
:1021e00040002000dafe0700cb22a900080078009a
:1021f0000080ea008180ea0014ff07004f04be005f
:102200000080fa00000006000000fa00881f780035
:10221000880020000000e000040032000004eb0011
:10222000e10f500001003a00a800200008007800eb
:1022300001ff0700cb22a80080022000c4fe070097
:10224000cb22a900080078000080ea008180ea0023
:10225000fefe070080022000bdfe07004f0478004c
:102260000080fa00000006000000fa00889fbe000f
:10227000000178008104780050e8800000044100eb
:102280000e9dec002602070070e880001800980000
:1022900050e88000800f54000500310071e8800094
:1022a0008180e80080e58000050207000400370017
:1022b00071e880008180e80090e58000000207005e
:1022c0000900e0000400320071e88000ec8040006a
:1022d00009007800fa0107004f04be000080fa00f0
:1022e000000006000000fa00881f7800a61ce2002b
:1022f0001a00320042a0a80030e580000000e00093
:1023000002003a00000478000200370060e5800017
:10231000300490006c0044000102070042a0a900b4
:102320000880e800fe010700b808900060e880001f
:10233000808f50000100360061e888008880e80046
:10234000380990006a11b90080cc210002004000d9
:10235000cd010700a61ce200e6ff3a004f0478001a
:102360000080fa00000006000000fa00881f7800d4
:102370006dfa070041e880000100500030e8880055
:102380002e00370051e880008100e80051e8880005
:102390000000e90030e888000100e00004003a0095
:1023a00090e5800082e5800092e5880080e5880065
:1023b00090e580001000e00028003a001f00370080
:1023c0009800900050e88000808f50001b003e0075
:1023d00042a0a8000880e800d1010700280890006a
:1023e0000000e000020032006c004400cc01070055
:1023f00042a0a900b808900060e88000808f5000db
:102400000100360061e888008880e8003809900003
:102410006a11b90080cc2100020040009a01070037
:1024200090e580001000e0000400320030009000d1
:10243000300490000800e000e1ff3a0030e880003e
:102440000000e000cfff3a0050e8800040e888003c
:102450004f0478000080fa00000006003000900071
:10246000300490000800e000f4ff320018009000f3
:10247000808f5000f1ff3900d5ff37000000fa00cf
:1024800098ff0700b8ff070064e880006a20b900e1
:1024900082cc2100800041001100e00019003200d0
:1024a000090037000201e8006a005000840f510063
:1024b0001c0032008301e90063e888008000780096
:1024c0001000e000f7ff32001100900010019000b2
:1024d0009200980064804000800f510002003a0092
:1024e00012019000920098001100900030009000be
:1024f00070e8880010017800c00890000200010018
:10250000080037000400e000060032006a20b9002d
:10251000e2cb210000004100840178000001eb00c3
:10252000e4ff37000080fa00000006000000fa0017
:10253000889fbe0088cc2100c9cd2100080078000a
:10254000430107006a044400888f5400fbff3a00ef
:10255000e0cb21003e01070040cb21003c010700f9
:1025600060ca21003a010700e0cb210090e5880015
:1025700040cb210080e588004f04be000080fa00b7
:10258000000006000000fa00889fbe008a9fbe007f
:102590008c1f78008005780001047800020578001f
:1025a000c00120004d020700800478000080eb008d
:1025b0000900e000240032000e1de20002003a0093
:1025c00079e88800d9ff0700e10f540003003600c6
:1025d000180020003c0020000100370064061400b1
:1025e0000000eb00d00c9800b80c9800ca0c9800c2
:1025f000090578000b1d78000a0078001d0107000e
:102600006c844400080078001a010700c90498008f
:10261000990c98000c0c7800b908900060e88000d4
:10262000808f50000100360061e888003909900071
:102630006a11b90080cc2100020040008a007800b5
:1026400011010700100020004f0678004f05be0062
:102650004f04be000080fa00000006000000fa00ef
:10266000889fbe00900078000100e00002003a0060
:10267000810478000200370030009000b004900020
:102680006c84440008007800250107008800780069
:1026900060ca2100fc000700b908900070e88000c3
:1026a000300890000001eb00808f500001003900dd
:1026b00012002000020078004f04be000080fa00e3
:1026c000000006000000fa00cac2bf000068a300b4
:1026d00007003200a1002000100020009cfe07002f
:1026e0002032280087fe0700cae2a8000600370053
:1026f000a10020002000200095fe07005032280095
:1027000080fe0700cae2a900c012200034f90700c9
:10271000edff37000000fa00889fbe008a1f780096
:102720000005eb00a8000700a9e8800098e88000f9
:10273000aae888009ae88800a8000700888f54005b
:1027400007003600110020003000200080fe070046
:10275000803228006bfe0700ba2e88000700370081
:10276000110020004000200079fe070000332800ff
:1027700064fe0700202e8000b02e8800c0122000ca
:1027800017f90700e7ff37000000fa009002200069
:10279000303a8800764040004467b60000ceb3006f
:1027a0004467b60012002000a10920008007200025
:1027b000337420008049780081497800824978008c
:1027c00071052000600420002374200080497800f7
:1027d000814978008249780043c7bf000047b200b2
:1027e000f04f5000fcff3a0042c7bf000058a30062
:1027f000fdff32000080fa00000006000000fa0031
:10280000881f780040a7a900dfff07002ca3ef0076
:102810004f0107000004eb00581688004816880096
:10282000c8c2a800c842a8000c010700290107007f
:10283000f4fd070010002000c2fd070080332800cf
:1028400030fe0700cb0107008003eb00080378008f
:102850008802780014002000880178009206200089
:10286000213428002036210038fa07008003eb00cd
:10287000080378008802780014002000880178009e
:102880009206200061342800a03821002ffa0700aa
:1028900086fa0700080078004f0478000080fa00ec
:1028a000000006000000fa00010878008000eb003c
:1028b000110098002100980032009800e8004000c4
:1028c000c02e280022322800b0187800800f510056
:1028d000fdff3a00200280008008780034c0bf006d
:1028e0000080fb00900098000000eb00a000980022
:1028f000668040000080fa00000006000000fa0038
:102900000000eb00200888000008880080382100c3
:1029100010088800a5c0bf00f1c8b30001406000e6
:102920000044a000a5e0b7008460a9009460a8005e
:102930000481a80004a1a90005e1a80080e78000a7
:10294000900778004f007800b0e888003400f90064
:102950004400f9004000f9003e00f9003c00f90095
:102960003a00f9003800f9002c00f9002a00f900bb
:102970002800f9002600f9002400f9002200f900df
:102980003200f9003600f9004f0778004f06be000c
:102990004f05be004f04be004f03be004f02be00f5
:1029a0004f01be004f00be004200f90000000600cb
:1029b000100020000080fa00000006000000fa006d
:1029c0000080fa00000006000000fa0042a0a80003
:1029d000163dec000080fa00000006000000fa003e
:1029e000161ded00b0e8880001003a0042a0a900e1
:1029f0000080fa00000006003600f800809fbe004c
:102a0000829fbe00849fbe00869fbe003400f800f7
:102a100000002000a00188000000fa008460a900e6
:102a2000eef70700b21502000000000000000000f1
:102a30000080fa003400f9004f03be004f02be00d0
:102a40004f01be004f00be003600f90000400600f6
:102a50000000fa00e4004000110098008088eb00bc
:102a600031009800410098000008eb000080fa0057
:102a7000000006000000fa008000eb004100980012
:102a80000080fa00000006000000fa0090019000ab
:102a9000130190009200980010019000a20098008d
:102aa00013019000210198009101980011009800f5
:102ab000c00098001008e8000080fa00000006003e
:102ac0000000fa000002780091017800e18f4100d7
:102ad00002003a0040019000080037006401400005
:102ae00012009000908f51000400390012019000f4
:102af00012009000908f5100fcff310012009000f6
:102b00009000980021009800a20098001101980000
:102b1000c4009800140ae8000080fa0000000600d3
:102b20000000fa0080007800100090002101900061
:102b300022009800a10190009001980041019000ae
:102b400012009000810f500001003a00130198001c
:102b50000000eb00c00098001209e9000080fa00b4
:102b6000000006004200f800801f780000022000ec
:102b700010028800811f7800829fbe00849fbe00e3
:102b8000869fbe00889fbe008a9fbe008c9fbe00ad
:102b90008e1f78003600f8003200f8002200f8009e
:102ba0002400f8002600f8002800f8002a00f800a9
:102bb0002c00f8003800f8003a00f8003c00f8005b
:102bc0003e00f8004000f8004400f8003400f8002f
:102bd000b0e88000801f780080e780000f08780050
:102be000ae0602000000000080e780009007780039
:102bf0004f007800b0e888003400f9004400f90084
:102c00004000f9003e00f9003c00f9003a00f900ec
:102c10003800f9002c00f9002a00f9002800f9001a
:102c20002600f9002400f9002200f9003200f90022
:102c30003600f9004f0778004f06be004f05be0072
:102c40004f04be004f03be004f02be004f01be0046
:102c50004f00be004200f900000006000000fa002c
:102c60002143a800c1cfb300014078002163b60022
:102c700020c3bf007f4060000064a00020e3b700d5
:102c80002043a8002343a800014078002363b60036
:102c900030ccb3002263b60025e3a900f0c3b30033
:102ca00024e3b7003083a8002ca3ef002c83a900f5
:102cb00085a0a900aac0bf000044a1000046b3003f
:102cc000aae0b70095a0a80021e3a8000080fa00c0
:102cd000000006000000fa000a21ef007038210011
:102ce0007008880013e1a8000080fa0000000600c8
:102cf000809fbe00829fbe000000fa000318800083
:102d000080e880000001400021cf210003b178005d
:102d10000000e80080e88800ea0f500001003a0057
:102d2000103def0000802000808f51000200340031
:102d3000143dec0001003700123dec0085a0a90015
:102d40000080fa004f01be004f00be0000400600a8
:102d50000000fa006ac0a9006ae0a900c822ef00da
:102d60000080eb0050168800c0e888000080fa0060
:102d7000000006000000fa00881f78001200200002
:102d80000014dd000100e000070032000eff070024
:102d900008007800181db700c0e8880050168800a9
:102da0000eff07000900370007ff07000800780042
:102db0000080ea008180ea00c2e880000001610032
:102dc000c2e888005216880004ff07004f0478000c
:102dd0000080fa00000006000000fa00881f78005a
:102de00011002000000cdd00f7fe0700c2e88000a3
:102df0000200640007003200080078000080ea004a
:102e00008180ea0000006100c0e888005016880058
:102e10000300370002007400c0e8880050168800e4
:102e2000eefe07004f0478000080fa000000060064
:020000040000fa
:102e3000dc1c000016000000020000000000000082
:102e40000000000000000000000000000000000082
:102e5000000000000000000000000000521c000004
:102e60005400000000000000161d000002000000d9
:102e700002000000ef0000005008000002140000f3
:102e800000000000181d000002000000000000000b
:102e9000061d00000a000000020000000000000003
:102ea000000000000000000000000000a61c000060
:102eb0003600000000000000101d000006000000a9
:102ec000020000000000000000000000f21c0000f2
:0c2ed000140000000000000000000000e2
:020000040000fa
:102edc000000fa00881f7800000478000008a300a6
:102eec00020032000000a1000084e800e9f50700b0
:102efc008242800082004400f03f2100808f50000d
:102f0c0006003e00810f5100040031002085200096
:102f1c000004410081428800010037000004eb00ee
:102f2c00e8f60700080078004f0478000080fa00eb
:102f3c00000006000000fa000080fa000000060005
:102f4c000000fa005028ef000080fa000000060094
:102f5c000000fa0000402100814280000100500076
:102f6c000080fa00000006000000fa00f0c0b30078
:102f7c00c065b600c0cfb300c065b600c3e5a900fc
:102f8c0000002800c225b60000712200b02e880077
:102f9c0000e22400202e8800c905a800c885a800de
:102fac00c805a900ca05a900c1e5a8000080fa005f
:042fbc00000006000b
:020000040000fa
:042fc0000000fe000f
:00000001FF
